:020000040800F2
:1000000000000420610200085F0200085D02000891
:100010005D0200085D0200085D02000800000000AB
:100020000000000000000000000000005F02000867
:100030005F020008000000005F0200085F02000885
:100040005D0200085D0200085D0200085D02000814
:100050005D0200085D0200085D0200085D02000804
:100060005D0200085D0200085D0200085D020008F4
:100070005D0200085D0200085D0200085D020008E4
:100080005D0200085D0200085D0200085D020008D4
:100090005D0200085D0200085D0200085D020008C4
:1000A0005D0200085D0200085D0200085D020008B4
:1000B0005D0200085D0200085D0200085D020008A4
:1000C0005D0200085D0200085D0200085D02000894
:1000D0005D0200085D0200085D0200085D02000884
:1000E0005D0200085D0200085D0200085D02000874
:1000F0005D0200085D0200085D0200085D02000864
:100100005D0200085D0200085D0200085D02000853
:100110005D0200085D0200085D0200085D02000843
:100120005D0200085D0200085D0200085D02000833
:100130005D0200085D0200085D0200085D02000823
:100140005D0200085D0200085D0200085D02000813
:100150005D0200085D0200085D0200085D02000803
:100160005D0200085D0200085D0200085D020008F3
:100170005D0200085D0200085D0200085D020008E3
:100180005D0200085D0200085D0200085D020008D3
:100190005D0200085D0200085D0200085D020008C3
:1001A0005D0200085D0200085D02000810B540F61F
:1001B000831000F045F80A48094C0423002201216D
:1001C00000F01EF80648042100F00EF8054B00BFB1
:1001D000013BFCD10421204600F009F8F6E700BFFE
:1001E000000C0048809698000904816170474369BB
:1001F00001EA030221EA030141EA024181617047F9
:100200002DE9F0410568C46800264FF0030E43FA5B
:1002100006F7FF070DD577000EFA07FC01FA07F87D
:1002200025EA0C0524EA0C0402FA07F748EA05055A
:100230003C430136102EEAD10560C460BDE8F08170
:10024000430903F1804303F5043300F01F001968EC
:10025000012202FA00F0084318607047FEE7704779
:1002600038B51A4A1A4B1B498B421BD31A4A002134
:1002700093421CD3194A1A4C13681A4D43F4007365
:100280001360536F43F470035367AC4212D3164CA0
:10029000164DAC4212D3FFF789FF154C154DAC42F9
:1002A00010D338BD52F8040B43F8040BDCE743F8D5
:1002B000041BDDE754F8043B9847E6E754F8043B99
:1002C0009847E6E754F8043B9847E8E7F802000847
:1002D00000000020000000200000002014ED00E0DD
:1002E000F8020008F8020008F8020008F802000806
:0802F000F8020008F802000802
:04000005080002618C
:00000001FF
