:020000040800F2
:1000000000000420C1070008BF070008BD07000862
:10001000BD070008BD070008BD070008000000007C
:10002000000000000000000000000000BF07000802
:10003000BF07000800000000BF070008BF07000856
:10004000BD070008BD070008BD070008BD07000880
:10005000BD070008BD070008BD070008BD07000870
:10006000BD070008BD070008BD070008BD07000860
:10007000BD070008BD070008BD070008BD07000850
:10008000BD070008BD070008BD070008BD07000840
:10009000BD070008BD070008BD070008BD07000830
:1000A000BD070008BD070008BD070008BD07000820
:1000B000BD070008BD070008BD070008BD07000810
:1000C000BD070008BD070008BD070008BD07000800
:1000D000BD070008BD070008BD070008BD070008F0
:1000E000BD070008BD070008BD070008BD070008E0
:1000F000BD070008BD070008BD070008BD070008D0
:10010000BD070008BD070008BD070008BD070008BF
:10011000BD070008BD070008BD070008BD070008AF
:10012000BD070008BD070008BD070008BD0700089F
:10013000BD070008BD070008BD070008BD0700088F
:10014000BD070008BD070008BD070008BD0700087F
:10015000BD070008BD070008BD070008BD0700086F
:10016000BD070008BD070008BD070008BD0700085F
:10017000BD070008BD070008BD070008BD0700084F
:10018000BD070008BD070008BD070008BD0700083F
:10019000BD070008BD070008BD070008BD0700082F
:1001A000BD070008BD070008BD07000838B5084CAA
:1001B000084D0121204600F033F94FF480612846B4
:1001C00000F031F9044B00BF013BFCD1F1E700BF67
:1001D000000400480008004800127A0013B500F03F
:1001E00071F800F0D1F800F0ADF840F60C4000F0E6
:1001F0002DFA40F6811000F029FA30483823002209
:10020000022100F019F9012319462C48002200F0C0
:1002100013F938222948052100F02EF90121274839
:1002200000F0FCF8264800F031FA00231A4600934B
:100230001946234800F060FA214800F04FFA2048A0
:1002400000F055FA1E4800F039FA1D4A93689B07E2
:10025000FCD51A48012100F0E3F81948062100F006
:1002600032FA1648012100F0D9F81448012100F0B3
:10027000D7F813484FF4616100F025FA1048BB210C
:1002800000F021FA0D48012100F0C8F80B480121C7
:1002900000F0C6F830210A4800F015FA084800F0CE
:1002A00017FA01210446054800F0B8F8BB2C01D12B
:1002B000FFF77CFF002002B010BD00BF0004004823
:1002C0000030014013B5022000F058F9022000F080
:1002D00029F9012000F07EF9002000F099F90420AE
:1002E00000F08CF9002000F07FF90024042000F0D9
:1002F0008BF8234628220421CDE90044022000F097
:1003000091F9204600F03AF9204600F00BF903205D
:1003100000F060F9204600F00DF9054A054B136026
:10032000054A06491160064A136002B010BD00BFBD
:100330000000002000B4C40404000020005A62023F
:100340000800002008B540F6821000F07FF90D4843
:100350004FF480630022012100F06EF84FF48053C7
:1003600008480022012100F067F806484FF4806138
:1003700000F054F8BDE8084002484FF4805100F006
:100380004FB800BF0008004808B54FF4186000F0EF
:100390005DF940F60E4000F059F94FF4C0630022B9
:1003A00002214FF0904000F047F84FF4007207210F
:1003B0004FF0904000F060F84FF4806207214FF05A
:1003C000904000F059F80F484FF4E13100F0A6F9E1
:1003D0000C48082100F0CCF90A48002100F0D1F9BE
:1003E00008480C2100F0D9F90648002100F0CFF9A7
:1003F0000448002100F0D7F9BDE80840014800F0AA
:10040000D8B900BF00380140034A136823F007033E
:1004100018431060704700BF0020024081617047A0
:10042000090481617047436901EA030221EA03017B
:1004300041EA0241816170472DE9F0410568C468D5
:1004400000264FF0030E43FA06F7FF070DD577009D
:100450000EFA07FC01FA07F825EA0C0524EA0C0459
:1004600002FA07F748EA05053C430136102EEAD1A7
:100470000560C460BDE8F081F0B5076A466A0023F4
:100480004FF00F0C42FA03F4E50707D59D000CFA74
:1004900005F427EA040701FA05F52F430133082B79
:1004A000F0D14FF00F0C42FA03F4E40708D59C009A
:1004B000203C0CFA04F526EA050601FA04F426436A
:1004C0000133102BEFD107624662F0BD06281FD81A
:1004D000DFE800F004090E13181A1C000D4B186811
:1004E000C0F3406070470B4B1868C0F34040704742
:1004F000084B1868C0F380207047064B1868C0F39B
:1005000040007047044BF9E7044BF7E7044BF5E76D
:1005100000207047001002409010024094100240EA
:100520009810024008B502461046FFF7CFFF00289A
:10053000FAD008BD032808D8DFE800F0160F08023B
:100540000D4A136813F00C0FFBD170470A4A136869
:10055000C3F38103012BFAD17047074A1368C3F331
:100560008103022BFAD17047034A1368C3F3810356
:10057000032BFAD1704700BF0810024006280AD8A2
:10058000DFE800F0040A0F14191B1D000D4A136860
:1005900043F08073136070470A4A136843F4803352
:1005A000F8E7084A136843F48073F3E7054A1368D1
:1005B00043F00103EEE7044AF9E7044AF7E7044A87
:1005C000F5E700BF00100240901002409410024076
:1005D00098100240034A136823F003031843106085
:1005E000704700BF08100240034A136823F46053A9
:1005F00043EAC0201060704708100240034A1368A5
:1006000023F4E06343EA00201060704708100240C2
:10061000034A136823F0F00343EA001010607047A8
:100620000810024010B5039C0139640644EA011425
:100630002043029C40EA4450034343EA0222024B17
:1006400042F080721A6010BD0C100240430903F1A1
:10065000804303F5043300F01F001968012202FAF9
:1006600000F0084318607047430903F1804303F525
:1006700004330122196800F01F0002FA00F0014360
:1006800019601A6822EA0000186070470A4B984205
:100690000ED003F57443984206D0A3F578439842F0
:1006A00009D140F20E7001E040F60C00FFF7DCBF0C
:1006B00040F20F70FAE77047003C0040036843F0D7
:1006C00040030360704783689B07FCD5C160704797
:1006D0008368DB07FCD5C06880B27047036843F4C9
:1006E00000730360436823F00403436070470368AA
:1006F00043F480730360704730B50468039D04F4CD
:1007000061542C4323431A434368114341F00401CD
:1007100043F0040343600160002030BD0F4A904263
:1007200010B54FEA510306D10D4A12681A44B2FBC4
:10073000F1F2C26010E00B4C0B4AA0421268F5D1F6
:10074000B2FBF1F001FB102203EB0222B2FBF1F34A
:10075000064A03EB0023136010BD00BF00380140C0
:100760000800002000800040040000200C800040B1
:10077000036808290CBF23F4805343F480530360BB
:100780007047436823F4405319434160704703683E
:1007900023F4C063194301607047036823F00C031E
:1007A000194301607047836823F4407319438160E3
:1007B0007047036843F0010303607047FEE770472A
:1007C00038B51A4A1A4B1B498B421BD31A4A0021CF
:1007D00093421CD3194A1A4C13681A4D43F4007300
:1007E0001360536F43F470035367AC4212D3164C3B
:1007F000164DAC4212D3FFF7F1FC154C154DAC422F
:1008000010D338BD52F8040B43F8040BDCE743F86F
:10081000041BDDE754F8043B9847E6E754F8043B33
:100820009847E6E754F8043B9847E8E7580800087B
:10083000000000200C0000200C00002014ED00E05F
:100840005808000858080008580800085808000808
:080850005808000858080008D0
:0C08580000093D0000093D0000093D00C2
:04000005080007C127
:00000001FF
