:020000040800F2
:1000000000000420D5070008D3070008D107000826
:10001000D1070008D1070008D10700080000000040
:10002000000000000000000000000000D3070008EE
:10003000D307000800000000D3070008D30700081A
:10004000D1070008D1070008D1070008D107000830
:10005000D1070008D1070008D1070008D107000820
:10006000D1070008D1070008D1070008D107000810
:10007000D1070008D1070008D1070008D107000800
:10008000D1070008D1070008D1070008D1070008F0
:10009000D1070008D1070008D1070008D1070008E0
:1000A000D1070008D1070008D1070008D1070008D0
:1000B000D1070008D1070008D1070008D1070008C0
:1000C000D1070008D1070008D1070008D1070008B0
:1000D000D1070008D1070008D1070008D1070008A0
:1000E000D1070008D1070008D1070008D107000890
:1000F000D1070008D1070008D1070008D107000880
:10010000D1070008D1070008D1070008D10700086F
:10011000D1070008D1070008D1070008D10700085F
:10012000D1070008D1070008D1070008D10700084F
:10013000D1070008D1070008D1070008D10700083F
:10014000D1070008D1070008D1070008D10700082F
:10015000D1070008D1070008D1070008D10700081F
:10016000D1070008D1070008D1070008D10700080F
:10017000D1070008D1070008D1070008D1070008FF
:10018000D1070008D1070008D1070008D1070008EF
:10019000D1070008D1070008D1070008D1070008DF
:1001A000D1070008D1070008D107000838B5084C6E
:1001B000084D0121204600F033F94FF480612846B4
:1001C00000F031F9044B00BF013BFCD1F1E700BF67
:1001D000000400480008004800127A0013B500F03F
:1001E00071F800F0D1F800F0ADF840F60C4000F0E6
:1001F0003BFA40F6811000F037FA304838230022ED
:10020000022100F019F9012319462C48002200F0C0
:1002100013F938222948052100F02EF90121274839
:1002200000F0FCF8264800F03FFA00231A4600933D
:100230001946234800F06EFA214800F05DFA204884
:1002400000F063FA1E4800F047FA1D4A93689B07C6
:10025000FCD51A48012100F0E3F81948062100F006
:1002600040FA1648012100F0D9F81448012100F0A5
:10027000D7F813484FF4616100F033FA1048BB21FE
:1002800000F02FFA0D48012100F0C8F80B480121B9
:1002900000F0C6F830210A4800F023FA084800F0C0
:1002A00025FA01210446054800F0B8F8BB2C01D11D
:1002B000FFF77CFF002002B010BD00BF0004004823
:1002C0000030014013B5022000F05AF9022000F07E
:1002D0002BF9012000F08CF9002000F0A7F9042090
:1002E00000F09AF9002000F08DF90024042000F0BD
:1002F0008BF8234628220421CDE90044022000F097
:100300009FF9204600F03CF9204600F00DF903204B
:1003100000F06EF9204600F00FF9054A054B136016
:10032000054A06491160064A136002B010BD00BFBD
:100330000000002000B4C40404000020005A62023F
:100340000800002008B540F6821000F08DF90D4835
:100350004FF480630022012100F06EF84FF48053C7
:1003600008480022012100F067F806484FF4806138
:1003700000F054F8BDE8084002484FF4805100F006
:100380004FB800BF0008004808B54FF4186000F0EF
:100390006BF940F60E4000F067F94FF4C06300229D
:1003A00002214FF0904000F047F84FF4007207210F
:1003B0004FF0904000F060F84FF4806207214FF05A
:1003C000904000F059F80F484FF4E13100F0B4F9D3
:1003D0000C48082100F0D6F90A48002100F0DBF9AA
:1003E00008480C2100F0E3F90648002100F0D9F993
:1003F0000448002100F0E1F9BDE80840014800F0A0
:10040000E2B900BF00380140034A136823F0070334
:1004100018431060704700BF0020024081617047A0
:10042000090481617047436901EA030221EA03017B
:1004300041EA0241816170472DE9F0410568C468D5
:1004400000264FF0030E43FA06F7FF070DD577009D
:100450000EFA07FC01FA07F825EA0C0524EA0C0459
:1004600002FA07F748EA05053C430136102EEAD1A7
:100470000560C460BDE8F081F0B5076A466A0023F4
:100480004FF00F0C42FA03F4E50707D59D000CFA74
:1004900005F427EA040701FA05F52F430133082B79
:1004A000F0D100234FF00F0C03F1080442FA04F4DA
:1004B000E40707D59C000CFA04F526EA050601FAC4
:1004C00004F426430133082BEED107624662F0BDE7
:1004D000062825D8DFE800F004090E13181C2000B8
:1004E000104B1868C0F3406070470E4B1868C0F39B
:1004F000404070470B4B1868C0F380207047094B91
:100500001868C0F340007047064BD3F89000F8E736
:10051000044BD3F89400F4E7024BD3F89800F0E7CB
:10052000002070470010024008B502461046FFF751
:10053000CFFF0028FAD008BD032808D8DFE800F074
:10054000160F08020D4A936813F00C0FFBD1704789
:100550000A4A9368C3F38103012BFAD17047074A13
:100560009368C3F38103022BFAD17047034A93685F
:10057000C3F38103032BFAD1704700BF0010024080
:10058000062831D8DFE800F0040A0F1419212900E9
:10059000164A136843F0807313607047134A136858
:1005A00043F48033F8E7114A136843F48073F3E7A8
:1005B0000E4A136843F00103EEE70C4AD2F890307C
:1005C00043F00103C2F890307047084AD2F89430E3
:1005D00043F00103C2F894307047044AD2F89830CF
:1005E00043F00103C2F89830704700BF001002408A
:1005F000034A936823F0030318439060704700BFD9
:1006000000100240034A936823F4605343EAC02079
:100610009060704700100240034A936823F4E0633F
:1006200043EA00209060704700100240034A93683C
:1006300023F0F00343EA001090607047001002407E
:1006400010B5039C0139640644EA01142043029C5E
:1006500040EA4450034343EA0222024B42F08072D4
:10066000DA6010BD00100240430903F1804303F536
:10067000043300F01F001968012202FA00F0084359
:1006800018607047430903F1804303F504330122E6
:10069000196800F01F0002FA00F0014319601A689F
:1006A00022EA0000186070470A4B98420ED003F50A
:1006B0007443984206D0A3F57843984209D140F29A
:1006C0000E7001E040F60C00FFF7DCBF40F20F7047
:1006D000FAE77047003C0040036843F040030360C2
:1006E000704783689B07FCD5C16070478368DB0750
:1006F000FCD5C06880B27047036843F400730360A0
:10070000436823F0040343607047036843F4807335
:100710000360704730B50468039D04F461542C43B2
:1007200023431A434368114341F0040143F0040397
:1007300043600160002030BD0E4A904210B54FEA80
:10074000510306D10C4A12681A44B2FBF1F2C2609E
:100750000FE00A4C0A4AA0421268F5D1B2FBF1F44C
:1007600001FB142203EB0222B2FBF1F303EB04239F
:10077000C36010BD00380140080000200080004028
:1007800004000020036808290CBF23F4805343F4BD
:10079000805303607047436823F44053194341601A
:1007A0007047036823F4C06319430160704703680E
:1007B00023F00C03194301607047836823F44073EE
:1007C000194381607047036843F001030360704779
:1007D000FEE7704738B51D4A1D4B1E498B4220D39A
:1007E0001D4A0021934221D34FF0E0231B4CD3F844
:1007F000142D1B4D42F40072C3F8142DD3F8882D2C
:1008000042F47002C3F8882DAC4212D3154C164D39
:10081000AC4212D3FFF7E2FC144C154DAC4210D39E
:1008200038BD52F8040B43F8040BD7E743F8041B18
:10083000D8E754F8043B9847E6E754F8043B984758
:10084000E6E754F8043B9847E8E700BF740800085F
:10085000000000200C0000200C000020740800089C
:100860007408000874080008740800087408000878
:040870007408000800
:0C08740000093D0000093D0000093D00A6
:04000005080007D513
:00000001FF
