:020000040800F2
:1000000000000420810A00087F0A00087D0A000819
:100010007D0A00087D0A00087D0A00080000000033
:100020000000000000000000000000007F0A00083F
:100030007F0A0008000000007F0A00087F0A00080D
:100040007D0A00087D0A00087D0A00087D0A000874
:100050007D0A00087D0A00087D0A00087D0A000864
:100060007D0A00087D0A00087D0A00087D0A000854
:100070007D0A00087D0A00087D0A00087D0A000844
:100080007D0A00087D0A00087D0A00087D0A000834
:100090007D0A00087D0A00087D0A00087D0A000824
:1000A0007D0A00087D0A00087D0A00087D0A000814
:1000B0007D0A00087D0A00087D0A00087D0A000804
:1000C0007D0A00087D0A00087D0A00087D0A0008F4
:1000D0007D0A00087D0A00087D0A00087D0A0008E4
:1000E0007D0A00087D0A00087D0A00087D0A0008D4
:1000F0007D0A00087D0A00087D0A00087D0A0008C4
:100100007D0A00087D0A00087D0A00087D0A0008B3
:100110007D0A00087D0A00087D0A00087D0A0008A3
:100120007D0A00087D0A00087D0A00087D0A000893
:100130007D0A00087D0A00087D0A00087D0A000883
:100140007D0A00087D0A00087D0A00087D0A000873
:100150007D0A00087D0A00087D0A00087D0A000863
:100160007D0A00087D0A00087D0A00087D0A000853
:100170007D0A00087D0A00087D0A00087D0A000843
:100180007D0A00087D0A00087D0A00087D0A000833
:100190007D0A00087D0A00087D0A00087D0A000823
:1001A0007D0A00087D0A00087D0A00086A4B2DE9D7
:1001B000F74F00F52840C030684A90FBF2F2134434
:1001C000674A684F9C00B4FBF2F46243D11C48BFFD
:1001D000911DA3EBA10340F2B5524FF47A6103FBEA
:1001E000011191FBF7F77A4348BF0332A3EBA20357
:1001F0001F3340F68F1550214FF0640C59436FF0B8
:100200004F0291FBF5F6754395FBF2F546F6251284
:1002100091FBF2F2A4F131010CFB01716FF00B0EB6
:10022000114402360EFB026601F596521D444FF052
:100230000C08A6F10E0440F2B55394FBF8F73A44CB
:100240005A43A5F5FA434B3B03EBA203B21E94FBC2
:10025000FEF408FB042440F26F12544301F5995256
:1002600004323A4494FBF8F41C44B2FBFCF313EB65
:10027000430348BF0333A4EBA3033B4C1C443B4B59
:10028000303103FB04005FFA81F94FF461645FFAD7
:1002900086FA90FBF4F8494604FB1807344800F04E
:1002A000D9FB5FFA85FB5146314800F0D3FB5FFA7A
:1002B00088F559462E4800F0CDFB29462C4800F021
:1002C000C9FB4FF03C0897FBF8F4E6B231462848EA
:1002D00000F0C0FB08FB1471CAB211462448019219
:1002E00000F0B8FB40F61C3000F058FA00F064F95A
:1002F000052000F0C9F9052000F09AF9052000F06A
:1003000033FA00F029FA00F063FA00F075FA00F011
:1003100081FA00F097FA7F21F92000F04DFA00F001
:1003200097FA484600F0A4FA504600F0B7FA58464B
:1003300000F0CEFA00F094FA2846019A01233146E3
:1003400000F02AFB00F06EFA00F05EFA00F03CF9D3
:10035000012003B0BDE8F08F327426008051010007
:10036000B13A0200094B1600A797DAFF80AEFEFFF4
:100370000038014010B500F01BF800F07BF800F0E9
:1003800057F807490748084CFFF710FF4FF4806102
:10039000204600F0BEF8054B00BF013BFCD1F5E75D
:1003A00048FF2826E00383280008004800350C0099
:1003B00013B5022000F068F9022000F039F901209D
:1003C00000F08EF9002000F0A9F9042000F09CF95B
:1003D000002000F08FF90024042000F08BF8234661
:1003E00028220421CDE90044022000F0A1F9204692
:1003F00000F04AF9204600F01BF9032000F070F9E4
:10040000204600F01DF9054A054B1360054A0649D0
:100410001160064A136002B010BD00BF000000204A
:1004200000B4C40404000020005A62020800002046
:1004300008B540F6821000F0B1F90D484FF4806322
:100440000022012100F06EF84FF48053084800228A
:10045000012100F067F806484FF4806100F054F87D
:10046000BDE8084002484FF4805100F04FB800BF8B
:100470000008004808B54FF4186000F08FF940F606
:100480000E4000F08BF94FF4C063002202214FF0C0
:10049000904000F047F84FF4007207214FF0904071
:1004A00000F060F84FF4806207214FF0904000F0B8
:1004B00059F80F484FF4E13100F07CFA0C4808215C
:1004C00000F0A2FA0A48002100F0A7FA08480C211F
:1004D00000F0AFFA0648002100F0A5FA0448002118
:1004E00000F0ADFABDE80840014800F0AEBA00BF28
:1004F00000380140034A136823F0070318431060D3
:10050000704700BF0020024081617047090481618B
:100510007047436901EA030221EA030141EA02410B
:10052000816170472DE9F0410568C46800264FF0ED
:10053000030E43FA06F7FF070DD577000EFA07FC06
:1005400001FA07F825EA0C0524EA0C0402FA07F779
:1005500048EA05053C430136102EEAD10560C46027
:10056000BDE8F081F0B5076A466A00234FF00F0C32
:1005700042FA03F4E50707D59D000CFA05F427EAD3
:10058000040701FA05F52F430133082BF0D14FF092
:100590000F0C42FA03F4E40708D59C00203C0CFA47
:1005A00004F526EA050601FA04F426430133102B6C
:1005B000EFD107624662F0BD024A136843F48073CC
:1005C0001360704700700040024A136823F4807380
:1005D000136070470070004006281FD8DFE800F065
:1005E00004090E13181A1C000D4B1868C0F3406064
:1005F00070470B4B1868C0F340407047084B1868B1
:10060000C0F380207047064B1868C0F34000704765
:10061000044BF9E7044BF7E7044BF5E7002070477C
:1006200000100240901002409410024098100240C6
:1006300008B502461046FFF7CFFF0028FAD008BDE4
:10064000032808D8DFE800F0160F08020D4A1368E7
:1006500013F00C0FFBD170470A4A1368C3F38103F0
:10066000012BFAD17047074A1368C3F38103022BA9
:10067000FAD17047034A1368C3F38103032BFAD1FD
:10068000704700BF0810024006280AD8DFE800F0D3
:10069000040A0F14191B1D000D4A136843F08073E0
:1006A000136070470A4A136843F48033F8E7084A36
:1006B000136843F48073F3E7054A136843F00103BA
:1006C000EEE7044AF9E7044AF7E7044AF5E700BF12
:1006D0000010024090100240941002409810024016
:1006E000034A136823F0030318431060704700BFE8
:1006F00008100240034A136823F4605343EAC02001
:100700001060704708100240034A136823F4E06346
:1007100043EA00201060704708100240034A136843
:1007200023F0F00343EA0010106070470810024005
:1007300010B5039C0139640644EA01142043029C6D
:1007400040EA4450034343EA0222024B42F08072E3
:100750001A6010BD0C100240024A136843F40043B3
:1007600013607047901002400B4B1A68042822F463
:1007700040721A6008D005280AD0012803D11A68EF
:1007800042F440721A6070471A6842F48072F9E7C6
:100790001A6842F40072F5E790100240430903F131
:1007A000804303F5043300F01F001968012202FAA8
:1007B00000F0084318607047044BC0F30E00186047
:1007C0001A6842EA01411960704700BF10280040D2
:1007D000074BCA221A6053221A60064A116821F098
:1007E0002001116011688906FCD5FF221A6070474C
:1007F000242800400C280040024BCA221A605322D1
:100800001A60704724280040014BFF221A6070478D
:1008100024280040024A136843F0800313607047A5
:100820000C280040024A136823F0800313607047CD
:100830000C280040024B1868C0F38010704700BFBE
:100840000C28004008B5FFF7F5FF0028FBD008BDD5
:10085000024A136843F020031360704708280040E1
:10086000024A136823F040031360704708280040D1
:100870000A23B0FBF3F203FB120040EA0213064A1C
:10088000116821F47F01116011681B0403F47F03D8
:100890000B431360704700BF042800400A23B0FBDD
:1008A000F3F203FB120040EA0210084A136823F433
:1008B000F853136003020002116803F4805300F43C
:1008C0007060184308431060704700BF0428004060
:1008D0000A23B0FBF3F203FB120040EA0213054ABD
:1008E000116821F03F011160116803F03F030B43D1
:1008F00013607047042800400F4B1A68C9B122F4F6
:1009000080021A600A23B0FBF3F203FB120040EAF4
:100910000210094A136823F47C13136003040004D3
:10092000116803F4401300F470201843084310606A
:10093000704742F48002E4E7002800400A23B0FB3D
:10094000F3F203FB120040EA0210084A136823F492
:10095000FE43136003020002116803F4E04300F455
:100960007060184308431060704700BF00280040C3
:100970000A23B0FBF3F203FB120040EA0213054A1C
:10098000116821F07F011160116803F07F030B43B0
:10099000136070470028004038B50D4619461446CC
:1009A000FFF7AAFF2846FFF7C9FF2046BDE83840F9
:1009B000FFF7DEBF0F4A904210B54FEA510306D150
:1009C0000D4A12681A44B2FBF1F2C26010E00B4CFF
:1009D0000B4AA0421268F5D1B2FBF1F001FB1022E4
:1009E00003EB0222B2FBF1F3064A03EB0023136090
:1009F00010BD00BF0038014008000020008000400A
:100A0000040000200C800040036808290CBF23F478
:100A1000805343F4805303607047436823F440538A
:100A2000194341607047036823F4C06319430160B0
:100A30007047036823F00C03194301607047836813
:100A400023F44073194381607047036843F0010346
:100A50000360704713B50446019100F00BF801994B
:100A6000204602B0BDE8104000F000B8C1F3080114
:100A700081627047C3691B06FCD57047FEE770476B
:100A800038B51A4A1A4B1B498B421BD31A4A00210C
:100A900093421CD3194A1A4C13681A4D43F400733D
:100AA0001360536F43F470035367AC4212D3164C78
:100AB000164DAC4212D3FFF75DFC154C154DAC4200
:100AC00010D338BD52F8040B43F8040BDCE743F8AD
:100AD000041BDDE754F8043B9847E6E754F8043B71
:100AE0009847E6E754F8043B9847E8E7180B0008F6
:100AF000000000200C0000200C00002014ED00E09D
:100B0000180B0008180B0008180B0008180B000839
:080B1000180B0008180B000887
:0C0B180000093D0000093D0000093D00FF
:0400000508000A8164
:00000001FF
