:020000040800F2
:10000000000004208D0200088B020008890200080D
:100010008902000889020008890200080000000027
:100020000000000000000000000000008B0200083B
:100030008B020008000000008B0200088B02000801
:100040008902000889020008890200088902000864
:100050008902000889020008890200088902000854
:100060008902000889020008890200088902000844
:100070008902000889020008890200088902000834
:100080008902000889020008890200088902000824
:100090008902000889020008890200088902000814
:1000A0008902000889020008890200088902000804
:1000B00089020008890200088902000889020008F4
:1000C00089020008890200088902000889020008E4
:1000D00089020008890200088902000889020008D4
:1000E00089020008890200088902000889020008C4
:1000F00089020008890200088902000889020008B4
:1001000089020008890200088902000889020008A3
:100110008902000889020008890200088902000893
:100120008902000889020008890200088902000883
:100130008902000889020008890200088902000873
:100140008902000889020008890200088902000863
:100150008902000889020008890200088902000853
:100160008902000889020008890200088902000843
:100170008902000889020008890200088902000833
:100180008902000889020008890200088902000823
:100190008902000889020008890200088902000813
:1001A00089020008890200088902000810B540F69B
:1001B000821000F05BF81448134C4FF48063002267
:1001C000012100F033F84FF4805300220E48012142
:1001D00000F02CF80C484FF4806100F019F80A4840
:1001E0004FF4805100F016F8084B00BF013BFCD1E2
:1001F00020464FF4806100F010F84FF48051204603
:1002000000F00BF8F0E700BF00080048006A180093
:1002100081617047090481617047436901EA030203
:1002200021EA030141EA0241816170472DE9F04171
:100230000568C46800264FF0030E43FA06F7FF076F
:100240000DD577000EFA07FC01FA07F825EA0C0530
:1002500024EA0C0402FA07F748EA05053C43013694
:10026000102EEAD10560C460BDE8F081430903F1B6
:10027000804303F5043300F01F001968012202FADD
:1002800000F0084318607047FEE7704738B51A4A17
:100290001A4B1B498B421BD31A4A002193421CD391
:1002A000194A1A4C13681A4D43F400731360536FC4
:1002B00043F470035367AC4212D3164C164DAC4254
:1002C00012D3FFF773FF154C154DAC4210D338BD58
:1002D00052F8040B43F8040BDCE743F8041BDDE79A
:1002E00054F8043B9847E6E754F8043B9847E6E7A0
:1002F00054F8043B9847E8E7240300080000002076
:10030000000000200000002014ED00E0240300089D
:100310002403000824030008240300082403000821
:0403200024030008AA
:040000050800028D60
:00000001FF
