:020000040800F2
:10000000000004201D0700081B070008190700084E
:100010001907000819070008190700080000000068
:100020000000000000000000000000001B070008A6
:100030001B070008000000001B0700081B07000842
:100040001907000819070008190700081907000810
:100050001907000819070008190700081907000800
:1000600019070008190700081907000819070008F0
:1000700019070008190700081907000819070008E0
:1000800019070008190700081907000819070008D0
:1000900019070008190700081907000819070008C0
:1000A00019070008190700081907000819070008B0
:1000B00019070008190700081907000819070008A0
:1000C0001907000819070008190700081907000890
:1000D0001907000819070008190700081907000880
:1000E0001907000819070008190700081907000870
:1000F0001907000819070008190700081907000860
:10010000190700081907000819070008190700084F
:10011000190700081907000819070008190700083F
:10012000190700081907000819070008190700082F
:10013000190700081907000819070008190700081F
:10014000190700081907000819070008190700080F
:1001500019070008190700081907000819070008FF
:1001600019070008190700081907000819070008EF
:1001700019070008190700081907000819070008DF
:1001800019070008190700081907000819070008CF
:1001900019070008190700081907000819070008BF
:1001A00019070008190700081907000810B500F022
:1001B0007DF800F0DDF800F0B9F8394C5721204601
:1001C00000F096FA6521204600F092FA6C21204654
:1001D00000F08EFA6321204600F08AFA6F21204653
:1001E00000F086FA6D21204600F082FA6521204653
:1001F00000F07EFA2021204600F07AFA7421204691
:1002000000F076FA6F21204600F072FA2021204695
:1002100000F06EFA4121204600F06AFA6221204681
:1002200000F066FA7321204600F062FA742120463D
:1002300000F05EFA7221204600F05AFA6121204651
:1002400000F056FA6321204600F052FA742120464D
:1002500000F04EFA2021204600F04AFA6C21204698
:1002600000F046FA6121204600F042FA6221204661
:1002700000F03EFA2121204600F03AFA0D212046F6
:1002800000F036FA0A21204600F032FA05484FF411
:10029000806100F0BCF8044B00BF013BFCD18DE74E
:1002A000003801400008004800350C0013B502205A
:1002B00000F058F9022000F029F9012000F07EF941
:1002C000002000F099F9042000F08CF9002000F0E3
:1002D0007FF90024042000F08BF823462822042113
:1002E000CDE90044022000F091F9204600F03AF9EF
:1002F000204600F00BF9032000F060F9204600F0E2
:100300000DF9054A054B1360054A06491160064A76
:10031000136002B010BD00BF0000002000B4C40490
:1003200004000020005A62020800002008B540F6D0
:10033000821000F07FF90D484FF480630022012104
:1003400000F06EF84FF4805308480022012100F0BD
:1003500067F806484FF4806100F054F8BDE80840A3
:1003600002484FF4805100F04FB800BF0008004829
:1003700008B54FF4186000F05DF940F60E4000F04B
:1003800059F94FF4C063002202214FF0904000F071
:1003900047F84FF4007207214FF0904000F060F8EA
:1003A0004FF4806207214FF0904000F059F80F4859
:1003B0004FF4E13100F04CF90C48082100F072F9DB
:1003C0000A48002100F077F908480C2100F07FF975
:1003D0000648002100F075F90448002100F07DF97D
:1003E000BDE80840014800F07EB900BF0038014078
:1003F000034A136823F0070318431060704700BFD7
:10040000002002408161704709048161704743699F
:1004100001EA030221EA030141EA024181617047D6
:100420002DE9F0410568C46800264FF0030E43FA39
:1004300006F7FF070DD577000EFA07FC01FA07F85B
:1004400025EA0C0524EA0C0402FA07F748EA050538
:100450003C430136102EEAD10560C460BDE8F0814E
:10046000F0B5076A466A00234FF00F0C42FA03F416
:10047000E50707D59D000CFA05F427EA040701FA01
:1004800005F52F430133082BF0D14FF00F0C42FA42
:1004900003F4E40708D59C00203C0CFA04F526EA96
:1004A000050601FA04F426430133102BEFD107624D
:1004B0004662F0BD06281FD8DFE800F004090E13DD
:1004C000181A1C000D4B1868C0F3406070470B4BA6
:1004D0001868C0F340407047084B1868C0F380208C
:1004E0007047064B1868C0F340007047044BF9E7AB
:1004F000044BF7E7044BF5E700207047001002407B
:1005000090100240941002409810024008B5024634
:100510001046FFF7CFFF0028FAD008BD032808D8FF
:10052000DFE800F0160F08020D4A136813F00C0FF5
:10053000FBD170470A4A1368C3F38103012BFAD138
:100540007047074A1368C3F38103022BFAD170473F
:10055000034A1368C3F38103032BFAD1704700BF2A
:100560000810024006280AD8DFE800F0040A0F1439
:10057000191B1D000D4A136843F080731360704708
:100580000A4A136843F48033F8E7084A136843F4CF
:100590008073F3E7054A136843F00103EEE7044A6A
:1005A000F9E7044AF7E7044AF5E700BF0010024004
:1005B000901002409410024098100240034A1368C1
:1005C00023F0030318431060704700BF0810024077
:1005D000034A136823F4605343EAC0201060704755
:1005E00008100240034A136823F4E06343EA002042
:1005F0001060704708100240034A136823F0F003AC
:1006000043EA0010106070470810024010B5039CC8
:100610000139640644EA01142043029C40EA445034
:10062000034343EA0222024B42F080721A6010BD7B
:100630000C100240430903F1804303F5043300F03A
:100640001F001968012202FA00F008431860704781
:100650000F4A904210B54FEA510306D10D4A126875
:100660001A44B2FBF1F2C26010E00B4C0B4AA042FC
:100670001268F5D1B2FBF1F001FB102203EB02226C
:10068000B2FBF1F3064A03EB0023136010BD00BF79
:1006900000380140080000200080004004000020D5
:1006A0000C800040036808290CBF23F4805343F4F6
:1006B000805303607047436823F4405319434160FB
:1006C0007047036823F4C0631943016070470368EF
:1006D00023F00C03194301607047836823F44073CF
:1006E000194381607047036843F00103036070475A
:1006F00013B50446019100F00BF80199204602B0B1
:10070000BDE8104000F000B8C1F3080181627047F5
:10071000C3691B06FCD57047FEE7704738B51A4A17
:100720001A4B1B498B421BD31A4A002193421CD3FC
:10073000194A1A4C13681A4D43F400731360536F2F
:1007400043F470035367AC4212D3164C164DAC42BF
:1007500012D3FFF72BFD154C154DAC4210D338BD0D
:1007600052F8040B43F8040BDCE743F8041BDDE705
:1007700054F8043B9847E6E754F8043B9847E6E70B
:1007800054F8043B9847E8E7B4070008000000204D
:100790000C0000200C00002014ED00E0B40700085D
:1007A000B4070008B4070008B4070008B40700083D
:0407B000B407000882
:0C07B40000093D0000093D0000093D0067
:040000050800071DCB
:00000001FF
